{
  "contractName": "LandRegistry",
  "abi": [
    {
      "constant": true,
      "inputs": [],
      "name": "userCount",
      "outputs": [
        {
          "name": "",
          "type": "uint256"
        }
      ],
      "payable": false,
      "stateMutability": "view",
      "type": "function",
      "signature": "0x07973ccf"
    },
    {
      "constant": true,
      "inputs": [
        {
          "name": "",
          "type": "uint256"
        }
      ],
      "name": "r_users",
      "outputs": [
        {
          "name": "",
          "type": "address"
        }
      ],
      "payable": false,
      "stateMutability": "view",
      "type": "function",
      "signature": "0x0c26456b"
    },
    {
      "constant": true,
      "inputs": [
        {
          "name": "",
          "type": "address"
        }
      ],
      "name": "registrationMapping",
      "outputs": [
        {
          "name": "",
          "type": "bool"
        }
      ],
      "payable": false,
      "stateMutability": "view",
      "type": "function",
      "signature": "0x11f7ce80"
    },
    {
      "constant": true,
      "inputs": [
        {
          "name": "",
          "type": "address"
        }
      ],
      "name": "users",
      "outputs": [
        {
          "name": "name",
          "type": "string"
        },
        {
          "name": "account",
          "type": "address"
        },
        {
          "name": "age",
          "type": "uint256"
        },
        {
          "name": "email",
          "type": "string"
        },
        {
          "name": "aadharIpfsHash",
          "type": "string"
        },
        {
          "name": "pan_num",
          "type": "string"
        },
        {
          "name": "phone_num",
          "type": "string"
        },
        {
          "name": "verified",
          "type": "bool"
        }
      ],
      "payable": false,
      "stateMutability": "view",
      "type": "function",
      "signature": "0xa87430ba"
    },
    {
      "constant": true,
      "inputs": [],
      "name": "landCount",
      "outputs": [
        {
          "name": "",
          "type": "uint256"
        }
      ],
      "payable": false,
      "stateMutability": "view",
      "type": "function",
      "signature": "0xd7bce658"
    },
    {
      "constant": true,
      "inputs": [
        {
          "name": "",
          "type": "uint256"
        }
      ],
      "name": "lands",
      "outputs": [
        {
          "name": "id",
          "type": "uint256"
        },
        {
          "name": "survey",
          "type": "string"
        },
        {
          "name": "pid",
          "type": "string"
        },
        {
          "name": "doc_hash",
          "type": "string"
        },
        {
          "name": "owner",
          "type": "address"
        },
        {
          "name": "price",
          "type": "string"
        },
        {
          "name": "verified",
          "type": "bool"
        },
        {
          "name": "forsale",
          "type": "bool"
        }
      ],
      "payable": false,
      "stateMutability": "view",
      "type": "function",
      "signature": "0xe261f1e5"
    },
    {
      "inputs": [],
      "payable": false,
      "stateMutability": "nonpayable",
      "type": "constructor",
      "signature": "constructor"
    },
    {
      "anonymous": false,
      "inputs": [
        {
          "indexed": false,
          "name": "id",
          "type": "uint256"
        },
        {
          "indexed": false,
          "name": "buyer",
          "type": "address"
        }
      ],
      "name": "LandBought",
      "type": "event",
      "signature": "0x0a7e3fef882dfc96c670f48eb8635389903aedaa920310326b774914cd19b0d3"
    },
    {
      "anonymous": false,
      "inputs": [
        {
          "indexed": false,
          "name": "userAddress",
          "type": "address"
        },
        {
          "indexed": false,
          "name": "status",
          "type": "bool"
        }
      ],
      "name": "UserVerified",
      "type": "event",
      "signature": "0x34736af44d2b91cd43fa896d4cfe0861ec1e6b4538583d385fc671639e9153b2"
    },
    {
      "anonymous": false,
      "inputs": [
        {
          "indexed": false,
          "name": "id",
          "type": "uint256"
        },
        {
          "indexed": false,
          "name": "status",
          "type": "bool"
        }
      ],
      "name": "LandVerified",
      "type": "event",
      "signature": "0x844a797c747d332e0cacaf14bbcc3c6b2f03b904c69b7ded23f3115305a39089"
    },
    {
      "anonymous": false,
      "inputs": [
        {
          "indexed": false,
          "name": "name",
          "type": "string"
        },
        {
          "indexed": false,
          "name": "age",
          "type": "uint256"
        },
        {
          "indexed": false,
          "name": "email",
          "type": "string"
        },
        {
          "indexed": false,
          "name": "aadharIpfsHash",
          "type": "string"
        },
        {
          "indexed": false,
          "name": "pan_num",
          "type": "string"
        },
        {
          "indexed": false,
          "name": "phone_num",
          "type": "string"
        }
      ],
      "name": "UserRegistered",
      "type": "event",
      "signature": "0xe9d99b89a1e7f7c91c5cdfb01b5ef6a4098b32cb735d90972f11d4ba48ef4163"
    },
    {
      "anonymous": false,
      "inputs": [
        {
          "indexed": false,
          "name": "id",
          "type": "uint256"
        },
        {
          "indexed": false,
          "name": "owner",
          "type": "address"
        },
        {
          "indexed": false,
          "name": "_doc_hash",
          "type": "string"
        },
        {
          "indexed": false,
          "name": "_survey",
          "type": "string"
        },
        {
          "indexed": false,
          "name": "_pid",
          "type": "string"
        },
        {
          "indexed": false,
          "name": "_price",
          "type": "string"
        }
      ],
      "name": "LandAdded",
      "type": "event",
      "signature": "0x039386eb4ccc8b6b242aa9795d84848a4574e7c120ed06ea9c21b1ef03d8edf4"
    },
    {
      "anonymous": false,
      "inputs": [
        {
          "indexed": false,
          "name": "id",
          "type": "uint256"
        },
        {
          "indexed": false,
          "name": "forsale",
          "type": "bool"
        }
      ],
      "name": "editSale",
      "type": "event",
      "signature": "0x3c1db5dd8ca2e3842b8c9238cb4c7435bfb5dfdc12d0a7fa6fd09f482fdce186"
    },
    {
      "constant": true,
      "inputs": [],
      "name": "getAdminAddress",
      "outputs": [
        {
          "name": "",
          "type": "address"
        }
      ],
      "payable": false,
      "stateMutability": "view",
      "type": "function",
      "signature": "0xb2e6b912"
    },
    {
      "constant": true,
      "inputs": [
        {
          "name": "numString",
          "type": "string"
        }
      ],
      "name": "st2num",
      "outputs": [
        {
          "name": "",
          "type": "uint256"
        }
      ],
      "payable": false,
      "stateMutability": "pure",
      "type": "function",
      "signature": "0x79cd9055"
    },
    {
      "constant": false,
      "inputs": [
        {
          "name": "_id",
          "type": "uint256"
        }
      ],
      "name": "editForSale",
      "outputs": [],
      "payable": false,
      "stateMutability": "nonpayable",
      "type": "function",
      "signature": "0x052e7f12"
    },
    {
      "constant": true,
      "inputs": [
        {
          "name": "userAddress",
          "type": "address"
        }
      ],
      "name": "isRegistered",
      "outputs": [
        {
          "name": "",
          "type": "bool"
        }
      ],
      "payable": false,
      "stateMutability": "view",
      "type": "function",
      "signature": "0xc3c5a547"
    },
    {
      "constant": false,
      "inputs": [
        {
          "name": "userAddress",
          "type": "address"
        },
        {
          "name": "_status",
          "type": "bool"
        }
      ],
      "name": "verifyUser",
      "outputs": [],
      "payable": false,
      "stateMutability": "nonpayable",
      "type": "function",
      "signature": "0x7e7ed032"
    },
    {
      "constant": false,
      "inputs": [
        {
          "name": "_id",
          "type": "uint256"
        },
        {
          "name": "_status",
          "type": "bool"
        }
      ],
      "name": "verifyLand",
      "outputs": [],
      "payable": false,
      "stateMutability": "nonpayable",
      "type": "function",
      "signature": "0x5ccfe7c3"
    },
    {
      "constant": true,
      "inputs": [
        {
          "name": "_userAddress",
          "type": "address"
        }
      ],
      "name": "getUserVerificationStatus",
      "outputs": [
        {
          "name": "",
          "type": "bool"
        }
      ],
      "payable": false,
      "stateMutability": "view",
      "type": "function",
      "signature": "0x358fd8c0"
    },
    {
      "constant": true,
      "inputs": [
        {
          "name": "_userAddress",
          "type": "address"
        }
      ],
      "name": "getLandVerificationStatus",
      "outputs": [
        {
          "name": "",
          "type": "bool"
        }
      ],
      "payable": false,
      "stateMutability": "view",
      "type": "function",
      "signature": "0x9bb71186"
    },
    {
      "constant": true,
      "inputs": [],
      "name": "getUsers",
      "outputs": [
        {
          "name": "",
          "type": "address[]"
        }
      ],
      "payable": false,
      "stateMutability": "view",
      "type": "function",
      "signature": "0x00ce8e3e"
    },
    {
      "constant": true,
      "inputs": [],
      "name": "getLandCount",
      "outputs": [
        {
          "name": "",
          "type": "uint256"
        }
      ],
      "payable": false,
      "stateMutability": "view",
      "type": "function",
      "signature": "0x5ceaa769"
    },
    {
      "constant": true,
      "inputs": [
        {
          "name": "_id",
          "type": "uint256"
        }
      ],
      "name": "getLandDetails",
      "outputs": [
        {
          "name": "",
          "type": "string"
        },
        {
          "name": "",
          "type": "string"
        },
        {
          "name": "",
          "type": "string"
        },
        {
          "name": "",
          "type": "string"
        },
        {
          "name": "",
          "type": "address"
        }
      ],
      "payable": false,
      "stateMutability": "view",
      "type": "function",
      "signature": "0xfe0cb7dc"
    },
    {
      "constant": true,
      "inputs": [],
      "name": "getUserCount",
      "outputs": [
        {
          "name": "",
          "type": "uint256"
        }
      ],
      "payable": false,
      "stateMutability": "view",
      "type": "function",
      "signature": "0xb5cb15f7"
    },
    {
      "constant": false,
      "inputs": [
        {
          "name": "_name",
          "type": "string"
        },
        {
          "name": "_age",
          "type": "uint256"
        },
        {
          "name": "_email",
          "type": "string"
        },
        {
          "name": "_aadharIpfsHash",
          "type": "string"
        },
        {
          "name": "_pan_num",
          "type": "string"
        },
        {
          "name": "_phone_num",
          "type": "string"
        }
      ],
      "name": "registerUser",
      "outputs": [],
      "payable": false,
      "stateMutability": "nonpayable",
      "type": "function",
      "signature": "0xa38a229f"
    },
    {
      "constant": true,
      "inputs": [
        {
          "name": "i",
          "type": "address"
        }
      ],
      "name": "getUserDetails",
      "outputs": [
        {
          "name": "",
          "type": "string"
        },
        {
          "name": "",
          "type": "uint256"
        },
        {
          "name": "",
          "type": "string"
        },
        {
          "name": "",
          "type": "string"
        },
        {
          "name": "",
          "type": "string"
        },
        {
          "name": "",
          "type": "string"
        },
        {
          "name": "",
          "type": "bool"
        }
      ],
      "payable": false,
      "stateMutability": "view",
      "type": "function",
      "signature": "0xcc3d967b"
    },
    {
      "constant": false,
      "inputs": [
        {
          "name": "_name",
          "type": "string"
        },
        {
          "name": "_age",
          "type": "uint256"
        },
        {
          "name": "_email",
          "type": "string"
        },
        {
          "name": "_aadharIpfsHash",
          "type": "string"
        },
        {
          "name": "_pan_num",
          "type": "string"
        },
        {
          "name": "_phone_num",
          "type": "string"
        }
      ],
      "name": "updateUser",
      "outputs": [],
      "payable": false,
      "stateMutability": "nonpayable",
      "type": "function",
      "signature": "0x205b9504"
    },
    {
      "constant": false,
      "inputs": [
        {
          "name": "_doc_hash",
          "type": "string"
        },
        {
          "name": "_survey",
          "type": "string"
        },
        {
          "name": "_pid",
          "type": "string"
        },
        {
          "name": "_price",
          "type": "string"
        }
      ],
      "name": "addLand",
      "outputs": [],
      "payable": false,
      "stateMutability": "nonpayable",
      "type": "function",
      "signature": "0xe7bc19f0"
    },
    {
      "constant": false,
      "inputs": [
        {
          "name": "_doc_hash",
          "type": "string"
        },
        {
          "name": "_survey",
          "type": "string"
        },
        {
          "name": "_pid",
          "type": "string"
        },
        {
          "name": "_price",
          "type": "string"
        },
        {
          "name": "id",
          "type": "uint256"
        }
      ],
      "name": "updateLand",
      "outputs": [],
      "payable": false,
      "stateMutability": "nonpayable",
      "type": "function",
      "signature": "0x168017d5"
    },
    {
      "constant": false,
      "inputs": [
        {
          "name": "_id",
          "type": "uint256"
        }
      ],
      "name": "buyLand",
      "outputs": [],
      "payable": true,
      "stateMutability": "payable",
      "type": "function",
      "signature": "0xced39558"
    }
  ],
  "bytecode": "0x608060405234801561001057600080fd5b5033600060010160006101000a81548173ffffffffffffffffffffffffffffffffffffffff021916908373ffffffffffffffffffffffffffffffffffffffff160217905550614214806100646000396000f3fe60806040526004361061013d576000357c0100000000000000000000000000000000000000000000000000000000900463ffffffff168062ce8e3e14610142578063052e7f12146101ae57806307973ccf146101e95780630c26456b1461021457806311f7ce801461028f578063168017d5146102f8578063205b95041461058f578063358fd8c0146108bd5780635ccfe7c3146109265780635ceaa7691461096d57806379cd9055146109985780637e7ed03214610a745780639bb7118614610ad1578063a38a229f14610b3a578063a87430ba14610e68578063b2e6b91214611127578063b5cb15f71461117e578063c3c5a547146111a9578063cc3d967b14611212578063ced395581461149e578063d7bce658146114cc578063e261f1e5146114f7578063e7bc19f01461173f578063fe0cb7dc146119cc575b600080fd5b34801561014e57600080fd5b50610157611bf7565b6040518080602001828103825283818151815260200191508051906020019060200280838360005b8381101561019a57808201518184015260208101905061017f565b505050509050019250505060405180910390f35b3480156101ba57600080fd5b506101e7600480360360208110156101d157600080fd5b8101908080359060200190929190505050611c85565b005b3480156101f557600080fd5b506101fe611d40565b6040518082815260200191505060405180910390f35b34801561022057600080fd5b5061024d6004803603602081101561023757600080fd5b8101908080359060200190929190505050611d46565b604051808273ffffffffffffffffffffffffffffffffffffffff1673ffffffffffffffffffffffffffffffffffffffff16815260200191505060405180910390f35b34801561029b57600080fd5b506102de600480360360208110156102b257600080fd5b81019080803573ffffffffffffffffffffffffffffffffffffffff169060200190929190505050611d84565b604051808215151515815260200191505060405180910390f35b34801561030457600080fd5b5061058d600480360360a081101561031b57600080fd5b810190808035906020019064010000000081111561033857600080fd5b82018360208201111561034a57600080fd5b8035906020019184600183028401116401000000008311171561036c57600080fd5b91908080601f016020809104026020016040519081016040528093929190818152602001838380828437600081840152601f19601f820116905080830192505050505050509192919290803590602001906401000000008111156103cf57600080fd5b8201836020820111156103e157600080fd5b8035906020019184600183028401116401000000008311171561040357600080fd5b91908080601f016020809104026020016040519081016040528093929190818152602001838380828437600081840152601f19601f8201169050808301925050505050505091929192908035906020019064010000000081111561046657600080fd5b82018360208201111561047857600080fd5b8035906020019184600183028401116401000000008311171561049a57600080fd5b91908080601f016020809104026020016040519081016040528093929190818152602001838380828437600081840152601f19601f820116905080830192505050505050509192919290803590602001906401000000008111156104fd57600080fd5b82018360208201111561050f57600080fd5b8035906020019184600183028401116401000000008311171561053157600080fd5b91908080601f016020809104026020016040519081016040528093929190818152602001838380828437600081840152601f19601f82011690508083019250505050505050919291929080359060200190929190505050611da4565b005b34801561059b57600080fd5b506108bb600480360360c08110156105b257600080fd5b81019080803590602001906401000000008111156105cf57600080fd5b8201836020820111156105e157600080fd5b8035906020019184600183028401116401000000008311171561060357600080fd5b91908080601f016020809104026020016040519081016040528093929190818152602001838380828437600081840152601f19601f820116905080830192505050505050509192919290803590602001909291908035906020019064010000000081111561067057600080fd5b82018360208201111561068257600080fd5b803590602001918460018302840111640100000000831117156106a457600080fd5b91908080601f016020809104026020016040519081016040528093929190818152602001838380828437600081840152601f19601f8201169050808301925050505050505091929192908035906020019064010000000081111561070757600080fd5b82018360208201111561071957600080fd5b8035906020019184600183028401116401000000008311171561073b57600080fd5b91908080601f016020809104026020016040519081016040528093929190818152602001838380828437600081840152601f19601f8201169050808301925050505050505091929192908035906020019064010000000081111561079e57600080fd5b8201836020820111156107b057600080fd5b803590602001918460018302840111640100000000831117156107d257600080fd5b91908080601f016020809104026020016040519081016040528093929190818152602001838380828437600081840152601f19601f8201169050808301925050505050505091929192908035906020019064010000000081111561083557600080fd5b82018360208201111561084757600080fd5b8035906020019184600183028401116401000000008311171561086957600080fd5b91908080601f016020809104026020016040519081016040528093929190818152602001838380828437600081840152601f19601f820116905080830192505050505050509192919290505050611e57565b005b3480156108c957600080fd5b5061090c600480360360208110156108e057600080fd5b81019080803573ffffffffffffffffffffffffffffffffffffffff16906020019092919050505061214a565b604051808215151515815260200191505060405180910390f35b34801561093257600080fd5b5061096b6004803603604081101561094957600080fd5b81019080803590602001909291908035151590602001909291905050506121a3565b005b34801561097957600080fd5b50610982612277565b6040518082815260200191505060405180910390f35b3480156109a457600080fd5b50610a5e600480360360208110156109bb57600080fd5b81019080803590602001906401000000008111156109d857600080fd5b8201836020820111156109ea57600080fd5b80359060200191846001830284011164010000000083111715610a0c57600080fd5b91908080601f016020809104026020016040519081016040528093929190818152602001838380828437600081840152601f19601f820116905080830192505050505050509192919290505050612281565b6040518082815260200191505060405180910390f35b348015610a8057600080fd5b50610acf60048036036040811015610a9757600080fd5b81019080803573ffffffffffffffffffffffffffffffffffffffff16906020019092919080351515906020019092919050505061235d565b005b348015610add57600080fd5b50610b2060048036036020811015610af457600080fd5b81019080803573ffffffffffffffffffffffffffffffffffffffff169060200190929190505050612489565b604051808215151515815260200191505060405180910390f35b348015610b4657600080fd5b50610e66600480360360c0811015610b5d57600080fd5b8101908080359060200190640100000000811115610b7a57600080fd5b820183602082011115610b8c57600080fd5b80359060200191846001830284011164010000000083111715610bae57600080fd5b91908080601f016020809104026020016040519081016040528093929190818152602001838380828437600081840152601f19601f8201169050808301925050505050505091929192908035906020019092919080359060200190640100000000811115610c1b57600080fd5b820183602082011115610c2d57600080fd5b80359060200191846001830284011164010000000083111715610c4f57600080fd5b91908080601f016020809104026020016040519081016040528093929190818152602001838380828437600081840152601f19601f82011690508083019250505050505050919291929080359060200190640100000000811115610cb257600080fd5b820183602082011115610cc457600080fd5b80359060200191846001830284011164010000000083111715610ce657600080fd5b91908080601f016020809104026020016040519081016040528093929190818152602001838380828437600081840152601f19601f82011690508083019250505050505050919291929080359060200190640100000000811115610d4957600080fd5b820183602082011115610d5b57600080fd5b80359060200191846001830284011164010000000083111715610d7d57600080fd5b91908080601f016020809104026020016040519081016040528093929190818152602001838380828437600081840152601f19601f82011690508083019250505050505050919291929080359060200190640100000000811115610de057600080fd5b820183602082011115610df257600080fd5b80359060200191846001830284011164010000000083111715610e1457600080fd5b91908080601f016020809104026020016040519081016040528093929190818152602001838380828437600081840152601f19601f8201169050808301925050505050505091929192905050506124e2565b005b348015610e7457600080fd5b50610eb760048036036020811015610e8b57600080fd5b81019080803573ffffffffffffffffffffffffffffffffffffffff169060200190929190505050612a0f565b60405180806020018973ffffffffffffffffffffffffffffffffffffffff1673ffffffffffffffffffffffffffffffffffffffff168152602001888152602001806020018060200180602001806020018715151515815260200186810386528e818151815260200191508051906020019080838360005b83811015610f49578082015181840152602081019050610f2e565b50505050905090810190601f168015610f765780820380516001836020036101000a031916815260200191505b5086810385528b818151815260200191508051906020019080838360005b83811015610faf578082015181840152602081019050610f94565b50505050905090810190601f168015610fdc5780820380516001836020036101000a031916815260200191505b5086810384528a818151815260200191508051906020019080838360005b83811015611015578082015181840152602081019050610ffa565b50505050905090810190601f1680156110425780820380516001836020036101000a031916815260200191505b50868103835289818151815260200191508051906020019080838360005b8381101561107b578082015181840152602081019050611060565b50505050905090810190601f1680156110a85780820380516001836020036101000a031916815260200191505b50868103825288818151815260200191508051906020019080838360005b838110156110e15780820151818401526020810190506110c6565b50505050905090810190601f16801561110e5780820380516001836020036101000a031916815260200191505b509d505050505050505050505050505060405180910390f35b34801561113357600080fd5b5061113c612d7c565b604051808273ffffffffffffffffffffffffffffffffffffffff1673ffffffffffffffffffffffffffffffffffffffff16815260200191505060405180910390f35b34801561118a57600080fd5b50611193612da8565b6040518082815260200191505060405180910390f35b3480156111b557600080fd5b506111f8600480360360208110156111cc57600080fd5b81019080803573ffffffffffffffffffffffffffffffffffffffff169060200190929190505050612db2565b604051808215151515815260200191505060405180910390f35b34801561121e57600080fd5b506112616004803603602081101561123557600080fd5b81019080803573ffffffffffffffffffffffffffffffffffffffff169060200190929190505050612e15565b6040518080602001888152602001806020018060200180602001806020018715151515815260200186810386528d818151815260200191508051906020019080838360005b838110156112c15780820151818401526020810190506112a6565b50505050905090810190601f1680156112ee5780820380516001836020036101000a031916815260200191505b5086810385528b818151815260200191508051906020019080838360005b8381101561132757808201518184015260208101905061130c565b50505050905090810190601f1680156113545780820380516001836020036101000a031916815260200191505b5086810384528a818151815260200191508051906020019080838360005b8381101561138d578082015181840152602081019050611372565b50505050905090810190601f1680156113ba5780820380516001836020036101000a031916815260200191505b50868103835289818151815260200191508051906020019080838360005b838110156113f35780820151818401526020810190506113d8565b50505050905090810190601f1680156114205780820380516001836020036101000a031916815260200191505b50868103825288818151815260200191508051906020019080838360005b8381101561145957808201518184015260208101905061143e565b50505050905090810190601f1680156114865780820380516001836020036101000a031916815260200191505b509c5050505050505050505050505060405180910390f35b6114ca600480360360208110156114b457600080fd5b8101908080359060200190929190505050613323565b005b3480156114d857600080fd5b506114e16135d0565b6040518082815260200191505060405180910390f35b34801561150357600080fd5b506115306004803603602081101561151a57600080fd5b81019080803590602001909291905050506135d6565b604051808981526020018060200180602001806020018873ffffffffffffffffffffffffffffffffffffffff1673ffffffffffffffffffffffffffffffffffffffff16815260200180602001871515151581526020018615151515815260200185810385528c818151815260200191508051906020019080838360005b838110156115c85780820151818401526020810190506115ad565b50505050905090810190601f1680156115f55780820380516001836020036101000a031916815260200191505b5085810384528b818151815260200191508051906020019080838360005b8381101561162e578082015181840152602081019050611613565b50505050905090810190601f16801561165b5780820380516001836020036101000a031916815260200191505b5085810383528a818151815260200191508051906020019080838360005b83811015611694578082015181840152602081019050611679565b50505050905090810190601f1680156116c15780820380516001836020036101000a031916815260200191505b50858103825288818151815260200191508051906020019080838360005b838110156116fa5780820151818401526020810190506116df565b50505050905090810190601f1680156117275780820380516001836020036101000a031916815260200191505b509c5050505050505050505050505060405180910390f35b34801561174b57600080fd5b506119ca6004803603608081101561176257600080fd5b810190808035906020019064010000000081111561177f57600080fd5b82018360208201111561179157600080fd5b803590602001918460018302840111640100000000831117156117b357600080fd5b91908080601f016020809104026020016040519081016040528093929190818152602001838380828437600081840152601f19601f8201169050808301925050505050505091929192908035906020019064010000000081111561181657600080fd5b82018360208201111561182857600080fd5b8035906020019184600183028401116401000000008311171561184a57600080fd5b91908080601f016020809104026020016040519081016040528093929190818152602001838380828437600081840152601f19601f820116905080830192505050505050509192919290803590602001906401000000008111156118ad57600080fd5b8201836020820111156118bf57600080fd5b803590602001918460018302840111640100000000831117156118e157600080fd5b91908080601f016020809104026020016040519081016040528093929190818152602001838380828437600081840152601f19601f8201169050808301925050505050505091929192908035906020019064010000000081111561194457600080fd5b82018360208201111561195657600080fd5b8035906020019184600183028401116401000000008311171561197857600080fd5b91908080601f016020809104026020016040519081016040528093929190818152602001838380828437600081840152601f19601f8201169050808301925050505050505091929192905050506138b8565b005b3480156119d857600080fd5b50611a05600480360360208110156119ef57600080fd5b8101908080359060200190929190505050613c79565b60405180806020018060200180602001806020018673ffffffffffffffffffffffffffffffffffffffff1673ffffffffffffffffffffffffffffffffffffffff16815260200185810385528a818151815260200191508051906020019080838360005b83811015611a83578082015181840152602081019050611a68565b50505050905090810190601f168015611ab05780820380516001836020036101000a031916815260200191505b50858103845289818151815260200191508051906020019080838360005b83811015611ae9578082015181840152602081019050611ace565b50505050905090810190601f168015611b165780820380516001836020036101000a031916815260200191505b50858103835288818151815260200191508051906020019080838360005b83811015611b4f578082015181840152602081019050611b34565b50505050905090810190601f168015611b7c5780820380516001836020036101000a031916815260200191505b50858103825287818151815260200191508051906020019080838360005b83811015611bb5578082015181840152602081019050611b9a565b50505050905090810190601f168015611be25780820380516001836020036101000a031916815260200191505b50995050505050505050505060405180910390f35b6060600a805480602002602001604051908101604052809291908181526020018280548015611c7b57602002820191906000526020600020905b8160009054906101000a900473ffffffffffffffffffffffffffffffffffffffff1673ffffffffffffffffffffffffffffffffffffffff1681526020019060010190808311611c31575b5050505050905090565b6006600082815260200190815260200160002060060160019054906101000a900460ff16156006600083815260200190815260200160002060060160016101000a81548160ff0219169083151502179055507f3c1db5dd8ca2e3842b8c9238cb4c7435bfb5dfdc12d0a7fa6fd09f482fdce186816006600084815260200190815260200160002060060160019054906101000a900460ff1660405180838152602001821515151581526020019250505060405180910390a150565b60095481565b600a81815481101515611d5557fe5b906000526020600020016000915054906101000a900473ffffffffffffffffffffffffffffffffffffffff1681565b60076020528060005260406000206000915054906101000a900460ff1681565b82600660008381526020019081526020016000206002019080519060200190611dce929190614005565b5084600660008381526020019081526020016000206003019080519060200190611df9929190614005565b5083600660008381526020019081526020016000206001019080519060200190611e24929190614005565b5081600660008381526020019081526020016000206005019080519060200190611e4f929190614005565b505050505050565b600760003373ffffffffffffffffffffffffffffffffffffffff1673ffffffffffffffffffffffffffffffffffffffff16815260200190815260200160002060009054906101000a900460ff168015611f3d57503373ffffffffffffffffffffffffffffffffffffffff16600560003373ffffffffffffffffffffffffffffffffffffffff1673ffffffffffffffffffffffffffffffffffffffff16815260200190815260200160002060010160009054906101000a900473ffffffffffffffffffffffffffffffffffffffff1673ffffffffffffffffffffffffffffffffffffffff16145b1515611f4857600080fd5b85600560003373ffffffffffffffffffffffffffffffffffffffff1673ffffffffffffffffffffffffffffffffffffffff1681526020019081526020016000206000019080519060200190611f9e929190614005565b5084600560003373ffffffffffffffffffffffffffffffffffffffff1673ffffffffffffffffffffffffffffffffffffffff1681526020019081526020016000206002018190555083600560003373ffffffffffffffffffffffffffffffffffffffff1673ffffffffffffffffffffffffffffffffffffffff168152602001908152602001600020600301908051906020019061203c929190614005565b5081600560003373ffffffffffffffffffffffffffffffffffffffff1673ffffffffffffffffffffffffffffffffffffffff1681526020019081526020016000206005019080519060200190612093929190614005565b5080600560003373ffffffffffffffffffffffffffffffffffffffff1673ffffffffffffffffffffffffffffffffffffffff16815260200190815260200160002060060190805190602001906120ea929190614005565b5082600560003373ffffffffffffffffffffffffffffffffffffffff1673ffffffffffffffffffffffffffffffffffffffff1681526020019081526020016000206004019080519060200190612141929190614005565b50505050505050565b6000600560008373ffffffffffffffffffffffffffffffffffffffff1673ffffffffffffffffffffffffffffffffffffffff16815260200190815260200160002060070160009054906101000a900460ff169050919050565b600060010160009054906101000a900473ffffffffffffffffffffffffffffffffffffffff1673ffffffffffffffffffffffffffffffffffffffff163373ffffffffffffffffffffffffffffffffffffffff1614151561220257600080fd5b806006600084815260200190815260200160002060060160006101000a81548160ff0219169083151502179055507f844a797c747d332e0cacaf14bbcc3c6b2f03b904c69b7ded23f3115305a39089828260405180838152602001821515151581526020019250505060405180910390a15050565b6000600854905090565b60008060009050606083905060008090505b8151811015612352576000818351039050600083838151811015156122b457fe5b9060200101517f010000000000000000000000000000000000000000000000000000000000000090047f01000000000000000000000000000000000000000000000000000000000000000290506000817f010000000000000000000000000000000000000000000000000000000000000090049050600060308260ff1603905060018403600a0a810287019650505050508080600101915050612293565b508192505050919050565b600060010160009054906101000a900473ffffffffffffffffffffffffffffffffffffffff1673ffffffffffffffffffffffffffffffffffffffff163373ffffffffffffffffffffffffffffffffffffffff161415156123bc57600080fd5b80600560008473ffffffffffffffffffffffffffffffffffffffff1673ffffffffffffffffffffffffffffffffffffffff16815260200190815260200160002060070160006101000a81548160ff0219169083151502179055507f34736af44d2b91cd43fa896d4cfe0861ec1e6b4538583d385fc671639e9153b28282604051808373ffffffffffffffffffffffffffffffffffffffff1673ffffffffffffffffffffffffffffffffffffffff168152602001821515151581526020019250505060405180910390a15050565b6000600560008373ffffffffffffffffffffffffffffffffffffffff1673ffffffffffffffffffffffffffffffffffffffff16815260200190815260200160002060070160009054906101000a900460ff169050919050565b600760003373ffffffffffffffffffffffffffffffffffffffff1673ffffffffffffffffffffffffffffffffffffffff16815260200190815260200160002060009054906101000a900460ff1615151561253b57600080fd5b612543614085565b610100604051908101604052808881526020013373ffffffffffffffffffffffffffffffffffffffff1681526020018781526020018681526020018581526020018481526020018381526020016000151581525090506001600760003373ffffffffffffffffffffffffffffffffffffffff1673ffffffffffffffffffffffffffffffffffffffff16815260200190815260200160002060006101000a81548160ff02191690831515021790555080600560003373ffffffffffffffffffffffffffffffffffffffff1673ffffffffffffffffffffffffffffffffffffffff168152602001908152602001600020600082015181600001908051906020019061264d9291906140e3565b5060208201518160010160006101000a81548173ffffffffffffffffffffffffffffffffffffffff021916908373ffffffffffffffffffffffffffffffffffffffff1602179055506040820151816002015560608201518160030190805190602001906126bb9291906140e3565b5060808201518160040190805190602001906126d89291906140e3565b5060a08201518160050190805190602001906126f59291906140e3565b5060c08201518160060190805190602001906127129291906140e3565b5060e08201518160070160006101000a81548160ff021916908315150217905550905050600960008154809291906001019190505550600a3390806001815401808255809150509060018203906000526020600020016000909192909190916101000a81548173ffffffffffffffffffffffffffffffffffffffff021916908373ffffffffffffffffffffffffffffffffffffffff160217905550507fe9d99b89a1e7f7c91c5cdfb01b5ef6a4098b32cb735d90972f11d4ba48ef416387878787878760405180806020018781526020018060200180602001806020018060200186810386528c818151815260200191508051906020019080838360005b8381101561282b578082015181840152602081019050612810565b50505050905090810190601f1680156128585780820380516001836020036101000a031916815260200191505b5086810385528a818151815260200191508051906020019080838360005b83811015612891578082015181840152602081019050612876565b50505050905090810190601f1680156128be5780820380516001836020036101000a031916815260200191505b50868103845289818151815260200191508051906020019080838360005b838110156128f75780820151818401526020810190506128dc565b50505050905090810190601f1680156129245780820380516001836020036101000a031916815260200191505b50868103835288818151815260200191508051906020019080838360005b8381101561295d578082015181840152602081019050612942565b50505050905090810190601f16801561298a5780820380516001836020036101000a031916815260200191505b50868103825287818151815260200191508051906020019080838360005b838110156129c35780820151818401526020810190506129a8565b50505050905090810190601f1680156129f05780820380516001836020036101000a031916815260200191505b509b50505050505050505050505060405180910390a150505050505050565b6005602052806000526040600020600091509050806000018054600181600116156101000203166002900480601f016020809104026020016040519081016040528092919081815260200182805460018160011615610100020316600290048015612abb5780601f10612a9057610100808354040283529160200191612abb565b820191906000526020600020905b815481529060010190602001808311612a9e57829003601f168201915b5050505050908060010160009054906101000a900473ffffffffffffffffffffffffffffffffffffffff1690806002015490806003018054600181600116156101000203166002900480601f016020809104026020016040519081016040528092919081815260200182805460018160011615610100020316600290048015612b855780601f10612b5a57610100808354040283529160200191612b85565b820191906000526020600020905b815481529060010190602001808311612b6857829003601f168201915b505050505090806004018054600181600116156101000203166002900480601f016020809104026020016040519081016040528092919081815260200182805460018160011615610100020316600290048015612c235780601f10612bf857610100808354040283529160200191612c23565b820191906000526020600020905b815481529060010190602001808311612c0657829003601f168201915b505050505090806005018054600181600116156101000203166002900480601f016020809104026020016040519081016040528092919081815260200182805460018160011615610100020316600290048015612cc15780601f10612c9657610100808354040283529160200191612cc1565b820191906000526020600020905b815481529060010190602001808311612ca457829003601f168201915b505050505090806006018054600181600116156101000203166002900480601f016020809104026020016040519081016040528092919081815260200182805460018160011615610100020316600290048015612d5f5780601f10612d3457610100808354040283529160200191612d5f565b820191906000526020600020905b815481529060010190602001808311612d4257829003601f168201915b5050505050908060070160009054906101000a900460ff16905088565b60008060010160009054906101000a900473ffffffffffffffffffffffffffffffffffffffff16905090565b6000600954905090565b6000600760008373ffffffffffffffffffffffffffffffffffffffff1673ffffffffffffffffffffffffffffffffffffffff16815260200190815260200160002060009054906101000a900460ff1615612e0f5760019050612e10565b5b919050565b606060006060806060806000600560008973ffffffffffffffffffffffffffffffffffffffff1673ffffffffffffffffffffffffffffffffffffffff168152602001908152602001600020600001600560008a73ffffffffffffffffffffffffffffffffffffffff1673ffffffffffffffffffffffffffffffffffffffff16815260200190815260200160002060020154600560008b73ffffffffffffffffffffffffffffffffffffffff1673ffffffffffffffffffffffffffffffffffffffff168152602001908152602001600020600301600560008c73ffffffffffffffffffffffffffffffffffffffff1673ffffffffffffffffffffffffffffffffffffffff168152602001908152602001600020600401600560008d73ffffffffffffffffffffffffffffffffffffffff1673ffffffffffffffffffffffffffffffffffffffff168152602001908152602001600020600501600560008e73ffffffffffffffffffffffffffffffffffffffff1673ffffffffffffffffffffffffffffffffffffffff168152602001908152602001600020600601600560008f73ffffffffffffffffffffffffffffffffffffffff1673ffffffffffffffffffffffffffffffffffffffff16815260200190815260200160002060070160009054906101000a900460ff16868054600181600116156101000203166002900480601f0160208091040260200160405190810160405280929190818152602001828054600181600116156101000203166002900480156130935780601f1061306857610100808354040283529160200191613093565b820191906000526020600020905b81548152906001019060200180831161307657829003601f168201915b50505050509650848054600181600116156101000203166002900480601f01602080910402602001604051908101604052809291908181526020018280546001816001161561010002031660029004801561312f5780601f106131045761010080835404028352916020019161312f565b820191906000526020600020905b81548152906001019060200180831161311257829003601f168201915b50505050509450838054600181600116156101000203166002900480601f0160208091040260200160405190810160405280929190818152602001828054600181600116156101000203166002900480156131cb5780601f106131a0576101008083540402835291602001916131cb565b820191906000526020600020905b8154815290600101906020018083116131ae57829003601f168201915b50505050509350828054600181600116156101000203166002900480601f0160208091040260200160405190810160405280929190818152602001828054600181600116156101000203166002900480156132675780601f1061323c57610100808354040283529160200191613267565b820191906000526020600020905b81548152906001019060200180831161324a57829003601f168201915b50505050509250818054600181600116156101000203166002900480601f0160208091040260200160405190810160405280929190818152602001828054600181600116156101000203166002900480156133035780601f106132d857610100808354040283529160200191613303565b820191906000526020600020905b8154815290600101906020018083116132e657829003601f168201915b505050505091509650965096509650965096509650919395979092949650565b60006133dc600660008481526020019081526020016000206005018054600181600116156101000203166002900480601f0160208091040260200160405190810160405280929190818152602001828054600181600116156101000203166002900480156133d25780601f106133a7576101008083540402835291602001916133d2565b820191906000526020600020905b8154815290600101906020018083116133b557829003601f168201915b5050505050612281565b90508034101515156133ed57600080fd5b3373ffffffffffffffffffffffffffffffffffffffff166006600084815260200190815260200160002060040160009054906101000a900473ffffffffffffffffffffffffffffffffffffffff1673ffffffffffffffffffffffffffffffffffffffff161415151561345e57600080fd5b6006600083815260200190815260200160002060040160009054906101000a900473ffffffffffffffffffffffffffffffffffffffff1673ffffffffffffffffffffffffffffffffffffffff166108fc349081150290604051600060405180830381858888f193505050501580156134da573d6000803e3d6000fd5b50336006600084815260200190815260200160002060040160006101000a81548173ffffffffffffffffffffffffffffffffffffffff021916908373ffffffffffffffffffffffffffffffffffffffff16021790555060006006600084815260200190815260200160002060060160016101000a81548160ff0219169083151502179055507f0a7e3fef882dfc96c670f48eb8635389903aedaa920310326b774914cd19b0d360085433604051808381526020018273ffffffffffffffffffffffffffffffffffffffff1673ffffffffffffffffffffffffffffffffffffffff1681526020019250505060405180910390a15050565b60085481565b6006602052806000526040600020600091509050806000015490806001018054600181600116156101000203166002900480601f0160208091040260200160405190810160405280929190818152602001828054600181600116156101000203166002900480156136885780601f1061365d57610100808354040283529160200191613688565b820191906000526020600020905b81548152906001019060200180831161366b57829003601f168201915b505050505090806002018054600181600116156101000203166002900480601f0160208091040260200160405190810160405280929190818152602001828054600181600116156101000203166002900480156137265780601f106136fb57610100808354040283529160200191613726565b820191906000526020600020905b81548152906001019060200180831161370957829003601f168201915b505050505090806003018054600181600116156101000203166002900480601f0160208091040260200160405190810160405280929190818152602001828054600181600116156101000203166002900480156137c45780601f10613799576101008083540402835291602001916137c4565b820191906000526020600020905b8154815290600101906020018083116137a757829003601f168201915b5050505050908060040160009054906101000a900473ffffffffffffffffffffffffffffffffffffffff1690806005018054600181600116156101000203166002900480601f0160208091040260200160405190810160405280929190818152602001828054600181600116156101000203166002900480156138885780601f1061385d57610100808354040283529160200191613888565b820191906000526020600020905b81548152906001019060200180831161386b57829003601f168201915b5050505050908060060160009054906101000a900460ff16908060060160019054906101000a900460ff16905088565b6138c0614163565b6101006040519081016040528060085481526020018581526020018481526020018681526020013373ffffffffffffffffffffffffffffffffffffffff168152602001838152602001600015158152602001600015158152509050806006600060085481526020019081526020016000206000820151816000015560208201518160010190805190602001906139579291906140e3565b5060408201518160020190805190602001906139749291906140e3565b5060608201518160030190805190602001906139919291906140e3565b5060808201518160040160006101000a81548173ffffffffffffffffffffffffffffffffffffffff021916908373ffffffffffffffffffffffffffffffffffffffff16021790555060a08201518160050190805190602001906139f59291906140e3565b5060c08201518160060160006101000a81548160ff02191690831515021790555060e08201518160060160016101000a81548160ff0219169083151502179055509050506008600081548092919060010191905055507f039386eb4ccc8b6b242aa9795d84848a4574e7c120ed06ea9c21b1ef03d8edf48160000151826080015187878787604051808781526020018673ffffffffffffffffffffffffffffffffffffffff1673ffffffffffffffffffffffffffffffffffffffff16815260200180602001806020018060200180602001858103855289818151815260200191508051906020019080838360005b83811015613afe578082015181840152602081019050613ae3565b50505050905090810190601f168015613b2b5780820380516001836020036101000a031916815260200191505b50858103845288818151815260200191508051906020019080838360005b83811015613b64578082015181840152602081019050613b49565b50505050905090810190601f168015613b915780820380516001836020036101000a031916815260200191505b50858103835287818151815260200191508051906020019080838360005b83811015613bca578082015181840152602081019050613baf565b50505050905090810190601f168015613bf75780820380516001836020036101000a031916815260200191505b50858103825286818151815260200191508051906020019080838360005b83811015613c30578082015181840152602081019050613c15565b50505050905090810190601f168015613c5d5780820380516001836020036101000a031916815260200191505b509a505050505050505050505060405180910390a15050505050565b6060806060806000613c89614163565b60066000888152602001908152602001600020610100604051908101604052908160008201548152602001600182018054600181600116156101000203166002900480601f016020809104026020016040519081016040528092919081815260200182805460018160011615610100020316600290048015613d4c5780601f10613d2157610100808354040283529160200191613d4c565b820191906000526020600020905b815481529060010190602001808311613d2f57829003601f168201915b50505050508152602001600282018054600181600116156101000203166002900480601f016020809104026020016040519081016040528092919081815260200182805460018160011615610100020316600290048015613dee5780601f10613dc357610100808354040283529160200191613dee565b820191906000526020600020905b815481529060010190602001808311613dd157829003601f168201915b50505050508152602001600382018054600181600116156101000203166002900480601f016020809104026020016040519081016040528092919081815260200182805460018160011615610100020316600290048015613e905780601f10613e6557610100808354040283529160200191613e90565b820191906000526020600020905b815481529060010190602001808311613e7357829003601f168201915b505050505081526020016004820160009054906101000a900473ffffffffffffffffffffffffffffffffffffffff1673ffffffffffffffffffffffffffffffffffffffff1673ffffffffffffffffffffffffffffffffffffffff168152602001600582018054600181600116156101000203166002900480601f016020809104026020016040519081016040528092919081815260200182805460018160011615610100020316600290048015613f885780601f10613f5d57610100808354040283529160200191613f88565b820191906000526020600020905b815481529060010190602001808311613f6b57829003601f168201915b505050505081526020016006820160009054906101000a900460ff161515151581526020016006820160019054906101000a900460ff16151515158152505090508060600151816040015182602001518360a001518460800151849450839350829250819150809050955095509550955095505091939590929450565b828054600181600116156101000203166002900490600052602060002090601f016020900481019282601f1061404657805160ff1916838001178555614074565b82800160010185558215614074579182015b82811115614073578251825591602001919060010190614058565b5b50905061408191906141c3565b5090565b6101006040519081016040528060608152602001600073ffffffffffffffffffffffffffffffffffffffff16815260200160008152602001606081526020016060815260200160608152602001606081526020016000151581525090565b828054600181600116156101000203166002900490600052602060002090601f016020900481019282601f1061412457805160ff1916838001178555614152565b82800160010185558215614152579182015b82811115614151578251825591602001919060010190614136565b5b50905061415f91906141c3565b5090565b6101006040519081016040528060008152602001606081526020016060815260200160608152602001600073ffffffffffffffffffffffffffffffffffffffff168152602001606081526020016000151581526020016000151581525090565b6141e591905b808211156141e15760008160009055506001016141c9565b5090565b9056fea165627a7a7230582061549eaefc45804437d682221414d4e5a264cf534b97b3cc29dd9439dfeee6380029",
  "source": "pragma solidity ^0.5.0;\r\n\r\ncontract LandRegistry {\r\n\r\n// Struct declaration for User\r\n    struct User {\r\n        string name;\r\n        address payable account;\r\n        uint256 age;\r\n        string email;\r\n        string aadharIpfsHash;\r\n        string pan_num;\r\n        string phone_num;\r\n        bool verified;\r\n    }\r\n\r\n// Struct declaration for land\r\n    struct Land {\r\n        uint id;\r\n        string survey;\r\n        string pid;\r\n        string doc_hash;\r\n        address payable owner;\r\n        string price;\r\n        bool verified;\r\n        bool forsale;\r\n    }\r\n\r\n// Struct declaration for Admin\r\n    struct Admin {\r\n        uint id;\r\n        address account;\r\n        string name;\r\n        uint age;\r\n        string phone_num;\r\n    }\r\n\r\n// Declare an admin object\r\n    Admin admin;\r\n\r\n// Constructor to initialize the account of admin to the address of person who deployed the contract\r\n     constructor() public{\r\n        admin.account = msg.sender ;\r\n    }\r\n\r\n// To access the address of the admin\r\n    function getAdminAddress()public view returns (address){\r\n        return admin.account;\r\n    }\r\n\r\n\r\n// Mappings\r\n    mapping(address => User) public users;\r\n    mapping(uint256 => Land) public lands;\r\n    mapping(address => bool) public registrationMapping;\r\n\r\n\r\n// Variables\r\n    uint256 public landCount;\r\n    uint256 public userCount;\r\n    address[] public r_users;\r\n\r\n\r\n// Events\r\n    // event UserRegistered(address payable account, string name);\r\n    // event LandAdded(uint256 id, string name, address payable owner);\r\n    event LandBought(uint256 id, address payable buyer);\r\n    event UserVerified(address userAddress, bool status);\r\n    event LandVerified(uint id, bool status);\r\n    event UserRegistered(string name,uint age,string email,string aadharIpfsHash,string pan_num, string phone_num);\r\n    event LandAdded(uint id,address payable owner,string _doc_hash, string _survey,string _pid, string _price);\r\n    event editSale(uint id, bool forsale);\r\n\r\n//Int conversion\r\n  function st2num(string memory numString) public pure returns(uint) {\r\n        uint  val=0;\r\n        bytes   memory stringBytes = bytes(numString);\r\n        for (uint  i =  0; i<stringBytes.length; i++) {\r\n            uint exp = stringBytes.length - i;\r\n            bytes1 ival = stringBytes[i];\r\n            uint8 uval = uint8(ival);\r\n           uint jval = uval - uint(0x30);\r\n   \r\n           val +=  (uint(jval) * (10**(exp-1))); \r\n        }\r\n      return val;\r\n    }\r\n\r\n//Edit Forsale\r\n   function editForSale(uint _id) public{\r\n    lands[_id].forsale = !lands[_id].forsale;\r\n\r\n    emit editSale(_id, lands[_id].forsale);\r\n   }\r\n\r\n//Check whether user is registered to our network\r\n    function isRegistered(address userAddress)public view returns (bool){\r\n        if(registrationMapping[userAddress])\r\n            return true;\r\n    }\r\n\r\n// Verify User by Admin\r\n    function verifyUser(address userAddress,bool _status) public{\r\n        require(msg.sender == address(admin.account));\r\n        users[userAddress].verified=_status;\r\n\r\n        emit UserVerified(userAddress, _status);\r\n    }\r\n\r\n// Verify Land by Admin\r\n    function verifyLand(uint _id,bool _status) public{\r\n        require(msg.sender == address(admin.account));\r\n        lands[_id].verified=_status;\r\n\r\n        emit LandVerified(_id,_status);\r\n    }\r\n\r\n// Get User verification status\r\n    function getUserVerificationStatus(address _userAddress) public view returns (bool){\r\n        return users[_userAddress].verified;\r\n    }\r\n\r\n// Get land verification status\r\n    function getLandVerificationStatus(address _userAddress) public view returns (bool){\r\n        return users[_userAddress].verified;\r\n    }\r\n\r\n// Get all the users\r\n   function getUsers() public view returns( address [] memory ){\r\n        return(r_users);\r\n    }\r\n\r\n// To get land count\r\n    function getLandCount() public view returns (uint) {\r\n        return landCount;\r\n    }\r\n\r\n// Get Land details\r\n    function getLandDetails(uint _id) public view returns (string memory,string memory,string memory,string memory, address){\r\n        Land memory l = lands[_id];\r\n        return (l.doc_hash, l.pid, l.survey, l.price, l.owner);\r\n    }\r\n\r\n// To get land count\r\n    function getUserCount() public view returns (uint) {\r\n        return userCount;\r\n    }\r\n\r\n// Register User into the network\r\n    function registerUser(string memory _name,uint256 _age,string memory _email,string memory _aadharIpfsHash,string memory _pan_num,string memory _phone_num) public {\r\n        require(!registrationMapping[msg.sender]);\r\n        User memory newUser = User({\r\n            name: _name,\r\n            account: msg.sender,\r\n            age: _age,\r\n            email: _email,\r\n            aadharIpfsHash: _aadharIpfsHash,\r\n            pan_num: _pan_num,\r\n            phone_num: _phone_num,\r\n            verified:false\r\n        });\r\n\r\n        registrationMapping[msg.sender]=true;\r\n        users[msg.sender] = newUser;\r\n        userCount++;\r\n        r_users.push(msg.sender);\r\n\r\n        emit UserRegistered(_name,_age,_email,_aadharIpfsHash,_pan_num,_phone_num);\r\n    }\r\n\r\n    // Get the user details\r\n     function getUserDetails(address i) public view returns (string memory, uint, string memory, string memory, string memory, string memory,bool) {\r\n        return (users[i].name,users[i].age,users[i].email,users[i].aadharIpfsHash,users[i].pan_num,users[i].phone_num,users[i].verified);\r\n    }\r\n\r\n    // Update User\r\n    function updateUser(string memory _name,uint256 _age,string memory _email,string memory _aadharIpfsHash,string memory _pan_num,string memory _phone_num) public {\r\n        //require that Seller is already registered\r\n        require(registrationMapping[msg.sender] && (users[msg.sender].account == msg.sender));\r\n\r\n        users[msg.sender].name = _name;\r\n        users[msg.sender].age = _age;\r\n        users[msg.sender].email = _email;\r\n        users[msg.sender].pan_num = _pan_num;\r\n        users[msg.sender].phone_num = _phone_num;\r\n        users[msg.sender].aadharIpfsHash=_aadharIpfsHash;\r\n    }\r\n\r\n    // Add land \r\n    function addLand(string memory _doc_hash, string memory _survey, \r\n    string memory _pid, string memory _price) public {\r\n        Land memory newLand = Land({\r\n            id: landCount,\r\n            owner: msg.sender,\r\n            doc_hash: _doc_hash,\r\n            survey: _survey,\r\n            pid: _pid,\r\n            verified: false,\r\n            price : _price,\r\n            forsale: false\r\n        });\r\n        lands[landCount] = newLand;\r\n        landCount++;\r\n        emit LandAdded(newLand.id, newLand.owner, _doc_hash, _survey, _pid, _price);\r\n    }\r\n\r\n    // Update land\r\n    function updateLand(string memory _doc_hash, string memory _survey, string memory _pid, string memory _price,uint id) public {\r\n        lands[id].pid=_pid;\r\n        lands[id].doc_hash=_doc_hash;\r\n        lands[id].survey=_survey;\r\n        lands[id].price=_price;\r\n    }\r\n\r\n    // Buy Land\r\n    function buyLand(uint _id) public payable {\r\n        //Is user verified\r\n        //require(registrationMapping[])\r\n        uint _price = st2num(lands[_id].price);\r\n         // Require that there is enough Ether in the transaction\r\n        require(msg.value >= _price);\r\n        // Require that the buyer is not the seller\r\n        require(lands[_id].owner != msg.sender);\r\n        // Pay the seller by sending them Ether\r\n        lands[_id].owner.transfer(msg.value);\r\n        // Trigger an event\r\n        lands[_id].owner = msg.sender;\r\n        // Update forsale\r\n        lands[_id].forsale = false;\r\n\r\n        emit LandBought(landCount, msg.sender);\r\n    }\r\n\r\n}",
  "sourcePath": "C:/Blockchain/Land-Registration-With-Blockchain-Major-project/blockchain/contracts/LandRegistry.sol",
  "compiler": {
    "name": "solc",
    "version": "0.5.0+commit.1d4f565a.Emscripten.clang"
  },
  "schemaVersion": "3.0.2",
  "updatedAt": "2024-08-12T17:09:27.066Z",
  "devdoc": {
    "methods": {}
  },
  "userdoc": {
    "methods": {}
  }
}